:1000000028C1000051C100004FC100004DC10000D7
:100010004BC1000049C1000047C1000045C10000BC
:1000200043C1000041C100003FC100000C946110B9
:100030003BC10000F0C1000037C10000D4C7000080
:1000400033C1000031C100002FC100002DC10000EC
:100050002BC1000029C1000027C1000025C10000FC
:1000600023C1000021C100001FC100001DC100000C
:100070001BC1000012011001FF000010EB0304215E
:1000800000020102030109022000010100C032093F
:1000900004000002FF0000000705830240000A0779
:1000A00005020240000A09022000010100C03209D5
:1000B00004000002FF0000000705820240000A075A
:1000C00005020240000A040309040C034100540025
:1000D0004D0045004C00000018034100560052003E
:1000E00049005300500020006D006B00490049009A
:1000F00000001C03300030003000320030003000BF
:1001000030003100320033003400350000000000C0
:1001100009000A000A000B000C000D000D000E0083
:100120000F0010001000120013001300140016003E
:100130001600180019001A001C001D001F002000E6
:10014000220023002500270029002B002E0030006C
:100150003200340037003A003D00400043004600C2
:100160004A004E00520055005A005E0063006800CD
:100170006D00730078007E0084008B009100990070
:10018000A000A900B100B900C300CC00D600E10076
:10019000EC00F700040111011E012D013B014B0190
:1001A0005B016C017D019101A501BA01CF01E6015E
:1001B000FE01160231024C026A028802A802CA023B
:1001C000ED021103380360038B03B803E70318043F
:1001D0004B048104B904F50434057505B90501061D
:1001E0004E069D06EF064807A30704086508D008D9
:1001F0004009B6092B0AAB0A300BC30B510CEE0CAD
:100200008F0D400EF60EAF0F681047111412F51245
:10021000ED13E214F015F9161B185C19911AE51B81
:10022000251D831E0320AB21302332250F27F12803
:10023000F82A1A2D492FA1311434A1364539173C1B
:100240001A3F34426045DF48704C40004101424350
:10025000030011241FBECFEFD2E0DEBFCDBF84B7B5
:1002600080FF03C01092770114BE81FF07C0809108
:10027000770191E089278093770114BE11E0A0E017
:10028000B1E0EAE1F7E202C005900D92A436B107B1
:10029000D9F711E0A4E6B1E001C01D92A737B1077C
:1002A000E1F764D00C948B13ABCE85B18F71806C69
:1002B00085B9089585B18F71806485B908958EB32D
:1002C000843089F412D282E08093E9008091E800C2
:1002D00082FF09C085B18F71806C85B9B2D085B1BC
:1002E0008F71806885B908951F9382E060E842E3CA
:1002F0000E94BB0F90E081709070182F20917701C1
:10030000222369F083E061E842E30E94BB0F90E0A2
:10031000212F30E082239323009719F004C0882313
:1003200011F490E401C090E885B18F71892B85B9F3
:100330001F91089584B7877F84BF88E10FB6F89432
:1003400080936000109260000FBE90E080E80FB6CE
:10035000F89480936100909361000FBE84B1806E29
:1003600084B985B18F7185B90C945210E3DFBBD18C
:1003700085B18F71806485B97894489902C090E204
:1003800001C090E085B18F7D892B85B998DF0E94EF
:100390005F13F3CF292F3327223049F02330A9F000
:1003A000213089F582E190E024E730E030C080918F
:1003B0007701882329F480E290E026EA30E027C024
:1003C00080E290E026E830E022C0813061F08130A8
:1003D00028F0823069F08330B1F40FC026EC30E0B1
:1003E000F90184910EC02AEC30E0F901849109C032
:1003F00028ED30E0F901849104C022EF30E0F901EA
:10040000849190E004C080E090E020E030E0FA01C8
:100410003183208308951F920F920FB60F921124FB
:100420008F9381E08ABD88E10FB6F89480936000D5
:10043000109260000FBE8F910F900FBE0F901F9013
:1004400018950F931F93DF93CF930F92CDB7DEB71D
:100450001091F1001ABC2EE088E190E00FB6F894FC
:10046000A895809360000FBE20936000809160008B
:10047000806480936000143109F4E4C0153110F5F4
:100480001A3009F4BFC01B3068F4143038F412304D
:1004900008F05BC0113009F0EDC033C0163009F030
:1004A000E9C086C0113109F4C8C0123120F41031FE
:1004B00009F0E0C0C0C0123109F4C7C0133109F01F
:1004C000D9C0BDC0193109F4C5C01A3168F416315C
:1004D00009F4B8C0163108F4B2C0173109F4BAC033
:1004E000183109F0C7C0B3C01D3109F4B6C01D31C1
:1004F00008F4ADC0103509F4B4C0113509F0BAC024
:10050000AEC08091E8008B778093E80080917701FE
:10051000882311F083E001C082E08093E90080919C
:10052000EC0081608093EC0081E08093F1001092F8
:10053000F1008AE08093F10080E091E06AE070E0F1
:1005400040E050E00E940112B1C00091F100123071
:1005500011F060E002C06091F1008091E8008B77BB
:100560008093E80080917701882311F083E001C037
:1005700082E08093E9008091EC0081608093EC0040
:100580001093F100802F6983C8D06981123039F44B
:1005900081FF0CC01092F100802FC7D087C080FF70
:1005A00005C01092F100802FB0D07EC080EC7CC0DE
:1005B00088E691E064E070E040E050E00E945F1166
:1005C0008091E8008B778093E80080917701882301
:1005D00011F083E001C082E08093E9008091EC009B
:1005E00081608093EC008091680190916901A091F5
:1005F0006A01B0916B01B7FF03C081E0809367018E
:1006000086E014C08091E8008B778093E8008091A9
:100610007701882311F083E001C082E08093E90034
:100620008091EC0081608093EC008AE08093F1007F
:100630001092F1003BC041D43EC009D43CC0812F90
:10064000CCD239C0812F2AD236C0E3D134C0812F19
:10065000F3D031C0812FA7D02EC04AD12CC002D6F2
:100660002AC058D728C08091E8008B778093E80093
:100670000E94ED0F8091F2008034A9F38091E80090
:100680008B778093E80080917701882311F083E0D5
:1006900001C082E08093E9008091EC00816080934A
:1006A000EC001093F10089EC8093F1008091E80058
:1006B0008E778093E80088E10FB6F894809360000D
:1006C000109260000FBE0E94ED0F82E08093E9005F
:1006D0008091EC008E7F8093EC000F90CF91DF91A2
:1006E0001F910F9108953AD0ADC40895EBE0F1E069
:1006F0009081891741F091E0E632F90711F03396C5
:10070000F7CFE0E0F0E0CF010895F0DF009711F4BB
:1007100080E00895FC0182810895E8DF009711F4DC
:1007200080E00895FC01818108951F93DF93CF93AA
:100730000F92CDB7DEB7182F6983D8DF6981009794
:1007400041F0FC0162831E3921F480E090E00E94B8
:1007500079130F90CF91DF911F910895CF93DF937D
:100760008EE9C4DFEC0180E090E00E9471138A837F
:10077000DF91CF91089506C0EFE9FFE03197F1F7DF
:1007800000C00000882321F09AB581509923A1F37D
:10079000089590912901992329F08EBD0DB407FE8B
:1007A000FDCF08958FC41F93DF93CF9300D000D067
:1007B000CDB7DEB7182FCE01019664E070E040E0BF
:1007C00050E00E94B4118091E8008B778093E8009C
:1007D00080917701882311F083E001C082E080934B
:1007E000E9008091EC0081608093EC008981D1DF89
:1007F0008A81CFDF8B81CDDF8C81CBDF1093F1003D
:100800001092F1001092F1008091E8008E778093B1
:10081000E8000F900F900F900F90CF91DF911F91F4
:10082000089590912901992331F08EBD0DB407FEF2
:10083000FDCF8EB5089546C41F93DF93CF93CDB7F8
:10084000DEB729970FB6F894DEBF0FBECDBF182FC5
:10085000CE01059665E070E040E050E00E94B411E2
:100860008091E8008B778093E8008091770188235E
:1008700011F083E001C082E08093E9008091EC00F8
:1008800081608093EC008E81CCDF89838F81C9DF0A
:100890008A838885C6DF8B838985C3DF8C83109329
:1008A000F1001092F100ED81CE018E0F911DFC013F
:1008B00080818093F1001092F1008091E8008E77A2
:1008C0008093E80029960FB6F894DEBF0FBECDBF27
:1008D000CF91DF911F91089580912901882331F0F4
:1008E0001EBC0DB407FEFDCF8EB5089580E0EAC3AF
:1008F000EF92FF920F931F93DF93CF93CDB7DEB7A5
:10090000C250D1400FB6F894DEBF0FBECDBFCE01AE
:10091000019663E070E040E050E00E94B41169810C
:1009200070E0CE01049640E050E00E94B411809146
:10093000E8008B778093E80080917701882311F09D
:1009400083E001C082E08093E9008091EC00816047
:100950008093EC008DE18093F1001092F10010E0A3
:1009600094E0E92EF12CEC0EFD1E0BC089811817C6
:1009700028F4F701E10FF11D808101C080E009DF5B
:100980001F5F8B81181790F300E084E0E82EF12CB4
:10099000EC0EFD1E19C08981181738F4F701E10F1C
:1009A000F11D1F5F80813DDF01C096DF8093F10064
:1009B0008091E80085FD07C08091E8008E778093E4
:1009C000E8000E94ED0F0F5F8A81081720F3109254
:1009D000F1009091E8008091E8008E778093E80024
:1009E00095FD09C00E94ED0F8091E8008E778093FD
:1009F000E8000E94ED0FCE5FDE4F0FB6F894DEBF29
:100A00000FBECDBFCF91DF911F910F91FF90EF905F
:100A10000895DF93CF9300D000D000D0CDB7DEB7DC
:100A2000CE01019666E070E040E050E00E94B41113
:100A30008091E8008B778093E8008091770188238C
:100A400011F083E001C082E08093E9008091EC0026
:100A500081608093EC008B819CDE8C819ADE8D819D
:100A600098DE8E8196DE8A81882321F4898183DE57
:100A700080E001C050D392E19093F1008093F100A7
:100A80008091E8008E778093E80026960FB6F89460
:100A9000DEBF0FBECDBFCF91DF910895DF92EF9201
:100AA000FF920F931F93DF93CF9300D00F92CDB798
:100AB000DEB7182FCE01019663E070E040E050E011
:100AC0000E94B41189819A81282F892F922F209119
:100AD000E8002B772093E80020917701222311F082
:100AE00023E001C022E02093E9009A83898380916A
:100AF000EC0081608093EC001093F1001092F10003
:100B0000EE24FF2428E0D22E01E042C0809167014C
:100B1000882319F01BD3109267018B813ADE8091F4
:100B2000690137DE8091680134DED6DE8093F10002
:100B30008091E80085FD07C08091E8008E77809362
:100B4000E8000E94ED0F143119F48B818D258B8301
:100B5000E0FC02C01631C9F48091680190916901EE
:100B6000A0916A01B0916B010196A11DB11D809306
:100B7000680190936901A0936A01B0936B011631EB
:100B800021F0009711F4009367010894E11CF11C17
:100B900089819A81E816F90608F4B8CF1092F1001D
:100BA0009091E8008091E8008E778093E80095FDB1
:100BB00009C00E94ED0F8091E8008E778093E800D5
:100BC0000E94ED0F0F900F900F90CF91DF911F912A
:100BD0000F91FF90EF90DF9008952F923F924F92E8
:100BE0005F926F927F928F929F92AF92BF92CF92BD
:100BF000DF92EF92FF920F931F93DF93CF93CDB7C6
:100C0000DEB7C950D1400FB6F894DEBF0FBECDBFDE
:100C1000182FCE01019669E070E040E050E00E949C
:100C2000B41169817A81862F672F782F81E0613036
:100C30007807B8F08091E8008B778093E800809186
:100C40007701882311F083E001C082E08093E900FE
:100C50008091EC0081608093EC001093F10080ECB7
:100C6000D5C07A836983CE010A9640E050E00E94A5
:100C7000B41189819A810A968F739070009739F424
:100C80008091E8008B778093E8000E94ED0F8091BF
:100C9000E8008B778093E80080917701882311F03A
:100CA00083E001C082E08093E9008091EC008160E4
:100CB0008093EC00133111F4B88401C0B984209002
:100CC00068013090690140906A0150906B01CC241A
:100CD000DD244AE0842E912C8C0E9D1EEE24FF24F0
:100CE00038E0A32E7724739462C0F40160800B81F6
:100CF00080916701882319F029D2109267018D81B4
:100D000048DD8091690145DD8091680142DD862DD5
:100D100040DD133119F48D818A258D83E114F104AE
:100D200081F46B1471F0C0FE05C0133119F48F818A
:100D3000886002C08F81877F8F83E0906801F09088
:100D4000690100FD11C0E114F10421F403FD02C0AA
:100D5000097F0260802FB7014B2D2C810F81FFD1BD
:100D6000882361F5EE24FF24C0FC02C01531C9F4CC
:100D70008091680190916901A0916A01B0916B0125
:100D80000196A11DB11D8093680190936901A09304
:100D90006A01B0936B01133121F4009711F4709242
:100DA00067010894811C911C0894C11CD11C898185
:100DB0009A81C816D90608F498CF80E09B8197FFE6
:100DC00023C08E81E6DC832DE4DC822DE2DC80E032
:100DD000E0DC8B8185FF06C0E114F10419F48F7CFF
:100DE00080618B838B81B7014B2D2C810F81B7D113
:100DF000133151F4209168013091690121153105B9
:100E000019F491E0909367011093F1008093F10041
:100E10008091E8008E778093E800C75FDE4F0FB6C1
:100E2000F894DEBF0FBECDBFCF91DF911F910F9120
:100E3000FF90EF90DF90CF90BF90AF909F908F90FA
:100E40007F906F905F904F903F902F900895DF9329
:100E5000CF9300D0CDB7DEB7CE01019662E070E04F
:100E600040E050E00E94B4118091E8008B778093BD
:100E7000E80080917701882311F083E001C082E0CF
:100E80008093E9008091EC0081608093EC0089817F
:100E900072DC80E0B2D1EAD08A816DDC81E180939E
:100EA000F1001092F1008091E8008E778093E800C5
:100EB0000F900F90CF91DF9108958F929F92AF92F4
:100EC000BF92CF92DF92EF92FF920F931F93DF9327
:100ED000CF93CDB7DEB72F970FB6F894DEBF0FBE16
:100EE000CDBFCE0105966BE070E040E050E00E947F
:100EF000B4118091E8008B778093E80080917701AE
:100F0000882311F083E001C082E08093E9008091A2
:100F1000EC0081608093EC001092680110926901EE
:100F200010926A0110926B018F8125DC72D181E0F1
:100F300064D18E8120DC6CE0862E912C8C0E9D1E5F
:100F40005E010894A11CB11C50E1C52ED12CCC0E21
:100F5000DD1E1EC089850FDCF80181918F0161DCE7
:100F6000F70181937F010C151D05A1F78B8588235F
:100F7000D1F0FE01E80FF11D90818A85981799F054
:100F800080E03BD18E81F7DB81E037D18E81F3DBCE
:100F90008885882351F09AB5992339F48150888740
:100FA00084017501D7CF80E001C080EC90E190937F
:100FB000F1008093F1008091E8008E778093E80043
:100FC0002F960FB6F894DEBF0FBECDBFCF91DF9145
:100FD0001F910F91FF90EF90DF90CF90BF90AF9057
:100FE0009F908F9008951F920F920FB60F92112429
:100FF0008F939F93199908C08091640187FF02C065
:101000002A9A18C02A9816C080916401880F80938C
:10101000640180916501982F915090936501882318
:1010200011F4109281001B9B05C0809164018160C6
:1010300080936401199A9F918F910F900FBE0F902A
:101040001F9018953E9A10926F0010928500109292
:10105000840081E090E0909389008093880080E490
:101060008093800089E08093810008958091290118
:10107000882349F084B1897F84B985B1867F85B999
:101080001CBC1DBC089584B1897F84B985B1867F5D
:1010900085B9D8CF92E090936F001092850010929E
:1010A0008400E82FF0E0EE0FFF1FEE5FFE4F85910A
:1010B0009491909389008093880010928000109200
:1010C000810008958093640188E080936501809198
:1010D000640187FF02C02A9A01C02A9810928500F5
:1010E000109284008AE080938100809165018823BA
:1010F00019F08AB58823C9F31092810080916401A8
:10110000089590912901992329F08EBD0DB407FE11
:10111000FDCF0895D7CF80EFF4DF80E0F2DF80E0ED
:10112000F0DF80912901882331F01EBC0DB407FE49
:10113000FDCF8EB502C080E0C5DF80FF03C08AB559
:10114000882349F38AB5811181E808958DE4D9DFB8
:1011500080E0D7DF80916A01D4DF80E0D2CFCF92E8
:10116000DF92FF920F931F93CF93DF93EB01142F26
:1011700090E08E7788309105A1F1893091053CF49B
:101180008230910569F08430910569F50CC0803298
:10119000910549F08034910521F18031910519F5CF
:1011A000822FE9DA20C06E01FD2C802FAADF8F2D5F
:1011B000A8DF8C2FA6DF80912901882331F01EBC87
:1011C0000DB407FEFDCF8EB502C080E07BDF811736
:1011D00019F48AB5882349F38AB5882321F080E879
:1011E00003C099DF01C080E0A895DF91CF911F91E6
:1011F0000F91FF90DF90CF900895882339F0249AC3
:101200008EE983DA882319F42C9A089524982C986F
:10121000089588E97ADA8730E0F491E09093290123
:10122000E82FF0E0E65BFD4F84918061209A289AD8
:1012300094B1966094B923982B9A86FF03C09DB50C
:10124000916002C09DB59E7F9DBD209880648CBD3D
:1012500008951092290194B1966094B995B199605E
:1012600095B918CFDF93CF930F92CDB7DEB7CE01EC
:10127000019661E070E040E050E00E94B41180917E
:10128000E8008B778093E80080917701882311F044
:1012900083E001C082E08093E9008091EC008160EE
:1012A0008093EC0089818093660191E59093F10031
:1012B000813011F480EC01C080E08093F1008091D6
:1012C000E8008E778093E8000F90CF91DF9108952A
:1012D0009B01AC01652F922F272F782F822F089525
:1012E000AF92BF92CF92DF92EF92FF920F931F9334
:1012F000DF93CF93CDB7DEB7C850D1400FB6F89487
:10130000DEBF0FBECDBFCE01019668E070E040E0C9
:1013100050E00E94B4116B817C818D819E81D8DF69
:101320006B837C838D839E836F817885862F672F67
:10133000782F78876F83CE01099640E050E00E94B5
:10134000B4118F81988509968F739070009731F44E
:101350008091E8008B778093E8003FD68091E80089
:101360008B778093E80080917701882311F083E0E8
:1013700001C082E08093E9008091EC00816080935D
:10138000EC0080916601882391F529812150263057
:1013900020F066E283E29EE213C030E0F901E65CF1
:1013A000FE4F9081F901E05CFE4F8081F901EA5B1C
:1013B000FE4F6081245B3E4FF9012081222379F0AA
:1013C000EB80FC800D811E81AF80B884492F2A817B
:1013D00099E0C92ED12CCC0EDD1EFDD210C04B8160
:1013E0005C816D817E81892F29855CD308C04F8106
:1013F00058858B819C81BE01675F7F4FF9D488231C
:1014000011F080E001C083E090E59093F10094E05A
:101410009093F1008093F1008091E8008E778093A3
:10142000E800C85FDE4F0FB6F894DEBF0FBECDBF39
:10143000CF91DF911F910F91FF90EF90DF90CF90B0
:10144000BF90AF900895DF93CF93CDB7DEB7C7506D
:10145000D1400FB6F894DEBF0FBECDBFCE010196CE
:1014600067E070E040E050E07FD76A817B818C814B
:101470009D812EDF6A837B838C839D832E813F81B8
:10148000422F232F342F3F832E834091E8004B7748
:101490004093E80040917701442311F043E001C0FC
:1014A00042E04093E9004091EC0041604093EC0041
:1014B000E0916601AE01485F5F4FEE2311F414D353
:1014C00004C0CB01BA01A901D1D4882311F483E06F
:1014D00001C080E090E59093F10095E09093F100D9
:1014E0008093F100882339F46E817F81CE010896C4
:1014F00040E050E086D78091E8008E778093E80046
:10150000C95FDE4F0FB6F894DEBF0FBECDBFCF91DF
:10151000DF910895DF93CF93CDB7DEB729970FB64C
:10152000F894DEBF0FBECDBF8091F100843009F486
:101530009FC0853048F48230B9F1833008F054C040
:10154000813009F046C10AC0863009F495C0863062
:1015500008F490C0873009F03CC1DBC08091E800FE
:101560008B778093E80080917701882311F083E0E6
:1015700001C082E08093E9008091EC00816080935B
:10158000EC0080916601882311F4A3D305C082305A
:1015900011F080E001C0B0D490E59093F10091E0AB
:1015A0009093F10089270EC19091E8009B7790936A
:1015B000E80090917701911183E08093E900809198
:1015C000EC0081608093EC0080916601882311F427
:1015D00075D301C086D480E58093F10082E08093CA
:1015E000F1001092F100F0C0CE01059665E070E0C8
:1015F00040E050E0B9D66E817F818885998568DEAC
:10160000AB01BC014E835F83688779878091E800D6
:101610008B778093E80080917701882311F083E035
:1016200001C082E08093E9008091EC0081608093AA
:10163000EC0080916601ED81882349F4E150E830A7
:1016400020F4F0E0EE5CFE4F808195D207C0E130DF
:1016500011F084E101C080E1BA01B1D3882311F017
:1016600080E001C083E090E59093F10093E0A8C092
:1016700037DEAFC0E8DEADC0CE01059661E070E0B8
:1016800040E050E071D68091E8008B778093E800CD
:1016900080917701882311F083E001C082E080937C
:1016A000E9008091EC0081608093EC0080916601FC
:1016B000882311F081E014C08D818150823010F0B8
:1016C00088E705C0E82FF0E0EE5AFE4F8081BE01AA
:1016D0006F5F7F4FBAD2882311F483E001C080E0AE
:1016E00090E59093F10096E09093F1008093F100E3
:1016F000882309F069C089819A81AB81BC819D01F1
:10170000442755272093F1008093F100892F9927D2
:1017100059C08091F100833069F1843028F4813020
:1017200049F0823029F41BC0843049F1853061F1E1
:1017300081E02FC02091F100B22F2091F100A22F63
:101740002091F100922F2091F100822F80932A01A5
:1017500090932B01A0932C01B0932D0119C02091DF
:10176000F100922F2091F100822F90932F0180930E
:101770002E010EC08091F1008093300109C080914C
:10178000F1008093310104C08091F1008091F1005B
:1017900080E09091E8009B779093E800909177012A
:1017A000992311F093E001C092E09093E9009091A9
:1017B000EC0091609093EC0090E59093F10097E03D
:1017C0009093F1008093F1008091E8008E778093F0
:1017D000E80029960FB6F894DEBF0FBECDBFCF91BB
:1017E000DF9108954D99FECF4D9BFECF4D99FECFD1
:1017F0005B9A539A8091C9008F7E8093C900809133
:10180000C90088608093C90081E080936C010895CD
:1018100080916C01882309F4E5DF80E04D99FECFCB
:101820004D9BFECF4D99FECF8F5F8C30B9F7089559
:10183000DF93CF930F92CDB7DEB790916C019923D0
:1018400019F48983CFDF89819091C80095FFFCCF7F
:101850009091C80090649093C8008093CE000F9040
:10186000CF91DF9108958091C80086FFFCCF8091D1
:10187000C80080648093C8008091C900877F8093EE
:10188000C9008091C90080618093C90053985B981A
:1018900010926C01089580916C01882309F0E3DFB8
:1018A0008091C80087FD03C08AB58823C9F3809161
:1018B000CE00089580916C01882309F0D4DF8091D7
:1018C000C800806C8093C8001092C9001092CA00B2
:1018D0008AB1877D8AB98BB1837D8BB924982C9886
:1018E000089580916C01882309F0BDDF80EC80931E
:1018F000C8001092C9001092CA008AB1877D8AB9C7
:101900008BB1837D8BB9089510926C01249A2C9829
:1019100085E08A95F1F700008AB188628AB9529809
:101920008FE190E09093CD008093CC0088E080938D
:10193000C9008FE68093CA006BDF6ACF10926C01FA
:101940008AB188628AB952985B9A85E08A95F1F7E4
:1019500000008FE190E09093CD008093CC0088E070
:101960008093C9008FE68093CA0052DF51CFEF9277
:10197000FF920F931F937B018C01862F59DF8F2DD0
:1019800057DF802F55DF812F53DF1F910F91FF907D
:10199000EF900895682F70E080E090E020912A0198
:1019A00030912B0140912C0150912D01622B732B12
:1019B000842B952BDCCF8BE63BDF8FE0EBDF80E2E7
:1019C00037DF69DF9AB5992311F080E0089587FD2C
:1019D000F6CF81E008957F928F929F92AF92BF924F
:1019E000CF92DF92EF92FF920F931F93CF93DF93EB
:1019F000882E962E742EE601C22E20FF10C0DBDF4B
:101A0000882309F440C08CE413DF8AE0C3DF892D0A
:101A10000FDF8CE40DDF8BE0BDDF81E009DFA11477
:101A2000B104E9F0C8DF882371F18CE401DF8AE0BA
:101A3000B1DF882DFDDE8BE6FBDEC801B70197DF45
:101A400080EAF6DE8A2D8150F3DE84E6F1DE8991AC
:101A5000EFDE0894A108B108A114B104C1F7C1FEDA
:101A600010C0A9DF882379F08CE4E2DE8AE092DFFF
:101A7000872DDEDE8CE4DCDEC801B70178DF80E094
:101A8000D7DE81E001C080E0DF91CF911F910F91FF
:101A9000FF90EF90DF90CF90BF90AF909F908F908E
:101AA0007F900895CF92DF92EF92FF920F931F9352
:101AB000182F6A017B01022F7EDF882371F08CE4EE
:101AC000B7DE8AE067DF812FB3DE8CE4B1DEC701C9
:101AD000B6014DDF802FACDE81E01F910F91FF90AA
:101AE000EF90DF90CF900895CF92DF92EF92FF9228
:101AF0000F931F93CF93DF937B018C01EA01690160
:101B00005ADF882319F18CE493DE8AE043DF83E413
:101B10008FDE8BE68DDEC801B70129DF80EA88DE23
:101B20008C2D815085DE84E283DE02C0B4DE899391
:101B3000C114D10431F08AB50894C108D1088823B2
:101B4000A9F39AB580E0992309F481E0DF91CF9160
:101B50001F910F91FF90EF90DF90CF90089580E854
:101B600067DE99DE9AB5992311F080E0089581FF30
:101B7000F6CF81E00895CF92DF92EF92FF921F930C
:101B8000182F6A017B0117DF882309F457C010342E
:101B900031F48CE44DDE8AE0FDDE80E439C01033A0
:101BA00009F03DC08CE444DE8AE0F4DE86E340DEEA
:101BB0008CE43EDE8BE0EEDE81E03ADEFCDE882364
:101BC00009F43CC08CE434DE8AE0E4DE83E330DEFA
:101BD0008BE62EDEC701B601CADE80EA29DE8091DF
:101BE0002E01815025DE84E623DE10E003C080E074
:101BF0001FDE1F5F212F30E080912E0190912F0179
:101C000028173907A0F38CE413DE8AE0C3DE80E3F3
:101C10000FDE8CE40DDE8BE0BDDE81E00CC08CE4D9
:101C200007DE8AE0B7DE812F03DE8CE401DEC70128
:101C3000B6019DDE80E0FCDD92DF01C080E01F91F7
:101C4000FF90EF90DF90CF9008950F931F93CF9365
:101C5000DF93182FEB01AFDE882351F18CE4E8DD30
:101C60008AE098DE812FE4DD8CE4E2DD8BE092DE19
:101C700081E0DEDD74DF8823D9F09DDE8823C1F0AA
:101C80008BE6D6DD84E086DE80EAD2DD82E0D0DD40
:101C900084E2CEDD8E010D5F1F4FFDDD8993C017FD
:101CA000D107D9F79AB580E0992319F481E001C0F2
:101CB00080E0DF91CF911F910F91089550DF81EC6B
:101CC000B7DD80E0B5DD81E8B3DDE5DD8823B9F778
:101CD00008CECF92DF92EF92FF920F931F93DF9384
:101CE000CF93CDB7DEB728970FB6F894DEBF0FBEFF
:101CF000CDBF24DE81EC9CDD89E59ADD82EC98DDA8
:101D000087E096DD80EE94DD8E01085F1F4F6E0147
:101D10007E010894E11CF11CD701E4E5F1E088E0C4
:101D200001900D928150E1F7F801808181DD015031
:101D300010400C151D0581F712DF28960FB6F89498
:101D4000DEBF0FBECDBFCF91DF911F910F91FF90EE
:101D5000EF90DF90CF900895282F2F70206990E0AA
:101D600080739070880F991F822B62CDEF92FF9243
:101D7000CF93DF93EC0188E65BDD7E018C2F58DD8D
:101D800089E656DD8F2D54DDDF91CF91FF90EF90E6
:101D9000089580913101282F2F70206190E0807389
:101DA0009070880F991F822B43DD75DD9AB59923BA
:101DB00011F080E0089587FDECCF81E008951F9336
:101DC000CF93DF93182FEB01E4DF882369F0809134
:101DD0003001C2DF812F2CDDCE018160C7DF80E6BC
:101DE00027DD80E025DDD5DFDF91CF911F910895BC
:101DF000EF92FF920F931F93CF93DF93EC018B0130
:101E00007A01C7DF882351F1E0FE08C0F801EE0D2A
:101E1000FF1D8FEF80830894E11CF11C809130013D
:101E20009BDF8DE105DDCE01A1DF13C0B2DF88238A
:101E3000A9F084E6FDDCF8018081FADC84E6F8DCB8
:101E4000F80181810E5F1F4FF3DC8EEF9FEFE80EEC
:101E5000F91EE114F10451F781E001C080E0DF9147
:101E6000CF911F910F91FF90EF900895EF92FF9205
:101E70000F931F93CF93DF93EC018B017A0189DFDE
:101E80008823E1F08091300167DF80E0D1DCCE0172
:101E90006DDF06C084E2CCDCFEDCF80181938F01AB
:101EA000E114F10431F08AB50894E108F1088823BF
:101EB00089F39AB580E0992309F481E0DF91CF910D
:101EC0001F910F91FF90EF90089580E8B1DCE3DC63
:101ED0009AB5992311F080E0089581FFF6CF81E053
:101EE0000895F3DF80ECA4DC80E0A2DC81E8A0DCD4
:101EF000D2DC8823B9F7DECCCF92DF92EF92FF924B
:101F00000F931F93DF93CF93CDB7DEB728970FB60C
:101F1000F894DEBF0FBECDBFF7DC82EC89DC87E032
:101F200087DC80EE85DC8E01085F1F4F6E017E012D
:101F30000894E11CF11CD701ECE5F1E088E0019088
:101F40000D928150E1F7F801808172DC0150104060
:101F50000C151D0581F7B9DF28960FB6F894DEBF82
:101F60000FBECDBFCF91DF911F910F91FF90EF90EA
:101F7000DF90CF9008958093E9008091EB0081601D
:101F80008093EB001092ED006093EC004093ED0025
:101F90008091EE00881F8827881F089580916F0127
:101FA00088238CF403C08EB38823B1F08091E800BD
:101FB00082FFF9CF8091E8008B778093E800089545
:101FC0008EB3882349F08091E80080FFF9CF80919B
:101FD000E8008E778093E80008952091E400309126
:101FE000E50084E69091EC0090FF23C09091E8001A
:101FF00090FD1DC09EB3992311F482E008959530A1
:1020000011F483E008959091EB0095FF02C081E008
:1020100008954091E4005091E5004217530711F3F1
:10202000882311F484E0089581509A01DBCF80E089
:1020300008959091E80092FFDDCFF9CF3CD03ED0DB
:102040008091D8008F778093D8008091D8008068E5
:102050008093D8008091D8008F7D8093D80084E051
:1020600089BD86E089BD09B400FEFDCF1EBA10927D
:102070006D0180E060E042E17EDF8091E1008E7FD3
:102080008093E1008091E20081608093E200809182
:10209000E20088608093E2008091E0008E7F809370
:1020A000E0000895E3E6F0E080818E7F808381E0A8
:1020B00080936E01C3CF1092E20008951092E10068
:1020C00008951F920F920FB60F9211242F933F93F2
:1020D0004F935F936F937F938F939F93AF93BF9330
:1020E000EF93FF938091E10082FF0AC08091E200AC
:1020F00082FF06C08091E1008B7F8093E100DED2F9
:102100008091E10080FF17C08091E20080FF13C042
:102110008091E2008E7F8093E2008091E2008061F6
:102120008093E2008091D80080628093D80019BC2F
:102130001EBA0E945A018091E10084FF2DC0809157
:10214000E20084FF29C084E089BD86E089BD09B42E
:1021500000FEFDCF8091D8008F7D8093D8008091C4
:10216000E1008F7E8093E1008091E2008F7E80937A
:10217000E2008091E20081608093E20080916D0135
:10218000882331F48091E30087FD02C081E001C023
:1021900084E08EBB0E9455018091E10083FF21C045
:1021A0008091E20083FF1DC08091E100877F8093D2
:1021B000E10082E08EBB10926D018091E1008E7F84
:1021C0008093E1008091E2008E7F8093E200809115
:1021D000E20080618093E20080E060E042E1CBDEDB
:1021E0006DD2FF91EF91BF91AF919F918F917F91B0
:1021F0006F915F914F913F912F910F900FBE0F9074
:102200001F90189520917501309176012617370798
:1022100018F4FC0190E03EC06115710511F09B01BE
:10222000F8CF2091E8002E772093E80020E030E0FE
:10223000F0CF8EB3882309F43EC0853009F43DC049
:102240008091E80083FF02C081E008958091E8005A
:1022500082FD2BC08091E80080FF1CC04091F200FD
:1022600050E008C084918093F100319621503040B5
:102270004F5F5F4F2115310519F04031510590F343
:1022800090E04031510509F491E08091E8008E77AB
:102290008093E8002115310561F6992351F605C0B8
:1022A0008EB3882341F0853041F08091E80082FFB1
:1022B000F7CF80E0089582E0089583E00895BF920B
:1022C000CF92DF92EF92FF920F931F93CF93DF9302
:1022D000EC018B016A0181DEB82E8823D1F57801EB
:1022E0000894E108F108EC0EFD1EC114D10439F088
:1022F000F60180819181081B190BE81AF90AC0E0E8
:10230000D0E024C08091E80085FD16C08091E800EF
:102310008B778093E800D3D1C114D10449F0F60142
:10232000808191818C0F9D1F9183808385E012C0F5
:1023300054DE882359F00EC08091F100F7018083AC
:102340000894E108F108015010402196011511058B
:10235000C9F68B2DDF91CF911F910F91FF90EF90D8
:10236000DF90CF90BF900895BF92CF92DF92EF920F
:10237000FF920F931F93CF93DF93EC018B017A01B0
:102380002CDEB82E882391F5E114F10439F0F70121
:1023900080819181081B190BC80FD91FCC24DD2423
:1023A00022C08091E80085FD16C08091E8008B77FF
:1023B0008093E80084D1E114F10449F0F7018081B1
:1023C00091818C0D9D1D9183808385E010C005DE79
:1023D000882349F00CC08091F1008993015010408E
:1023E0000894C11CD11C01151105D9F68B2DDF9164
:1023F000CF911F910F91FF90EF90DF90CF90BF9002
:102400000895BF92CF92DF92EF92FF920F931F93A6
:10241000CF93DF93EC018B017A01DFDDB82E8823A7
:1024200091F5E114F10439F0F70180819181081BE5
:10243000190BC80FD91FCC24DD2422C08091E800DD
:1024400085FD16C08091E8008E778093E80037D133
:10245000E114F10449F0F701808191818C0D9D1DFB
:102460009183808385E010C0B8DD882349F00CC0DB
:1024700089918093F100015010400894C11CD11C37
:1024800001151105D9F68B2DDF91CF911F910F9179
:10249000FF90EF90DF90CF90BF9008950F931F9320
:1024A000DF93CF9300D0CDB7DEB7EFE6F1E08091B8
:1024B000F100819381E0E737F807C9F7FFD08091F9
:1024C000E80083FFE6C080916F0190917001953024
:1024D00009F46DC0963040F4913081F1913070F084
:1024E000933009F0D6C02AC0983009F4A4C09930BE
:1024F00009F4B3C0963009F0CCC07CC0803809F430
:10250000C8C0823809F0C5C0809173018F70809374
:10251000E9008091EB001092E9009091E800977F2C
:102520009093E80090E025E0969587952A95E1F74D
:1025300081708093F1001092F10088C0882319F017
:10254000823009F0A6C08F71823009F0A2C080915C
:102550007101882331F5809173018F7009F499C05E
:102560008093E9002091EB0020FF1BC0933021F401
:102570008091EB00806213C09091EB00906190938A
:10258000EB0021E030E002C0220F331F8A95E2F712
:102590002093EA001092EA008091EB00886080931B
:1025A000EB001092E9008091E800877F52C08823F9
:1025B00009F06FC0109171011F770FB7F8948091E7
:1025C000E800877F8093E800E9DC8091E80080FFE5
:1025D000FCCF8091E3008078812B8093E3008068BA
:1025E0008093E300112311F482E001C083E08EBBED
:1025F0000FBF4FC08058823008F04BC080917101EE
:102600009091720160917301AE014F5F5F4F0E9424
:10261000CA01BC01009709F43CC08091E800877FA3
:102620008093E80089819A81EDDD8091E8008B77C5
:102630008093E8002EC0803861F58091E800877FA4
:102640008093E80080916D018093F1008091E80013
:102650008E778093E800A2DC1CC08823D1F490918F
:1026600071019230B0F48091E800877F8093E80098
:1026700090936D0193DC80916D01882331F48091FA
:10268000E30087FD02C081E001C084E08EBB0E94B0
:1026900074018091E80083FF0AC08091EB008062A2
:1026A0008093EB008091E800877F8093E8000F9093
:1026B0000F90CF91DF911F910F91089508951F936F
:1026C0008EB3882361F01091E9001092E9008091A7
:1026D000E80083FF01C0E2DE1F701093E9001F9144
:1026E0000895F999FECF92BD81BDF89A992780B5DA
:1026F0000895262FF999FECF92BD81BDF89A0197D2
:1027000000B4021639F01FBA20BD0FB6F894FA9A39
:0A271000F99A0FBE0895F894FFCF68
:10271A004156524953505F4D4B32008001008101AE
:10272A000090010091010192011194012198030680
:10273A009E0301A10100A4030001C00100012000C1
:10274A00333240206830222A3218242C354C081A99
:10275A002323332323232626362626260101010096
:10276A00000138391289AB45CDD888FF1289AB45AB
:04277A00CDD888FF2F
:00000001FF
