:1000000008C100002BC1000029C1000027C1000069
:1000100025C1000023C1000021C100001FC1000054
:100020001DC100001BC1000019C100000C9421106B
:1000300015C1000013C1000011C10000B6C70000C7
:100040000DC100000BC1000009C1000011C2000079
:1000500005C1000003C1000001C10000FFC0000095
:10006000FDC00000FBC00000F9C00000F7C00000A8
:10007000F5C0000012011001FF000010EB03042185
:10008000000201020301040309040C0341005400AF
:100090004D0045004C00000018034100560052007E
:1000A00049005300500020006D006B0049004900DA
:1000B00000001C03300030003000320030003000FF
:1000C0003000310032003300340035000000000001
:1000D00009000A000A000B000C000D000D000E00C4
:1000E0000F0010001000120013001300140016007F
:1000F0001600180019001A001C001D001F00200027
:10010000220023002500270029002B002E003000AC
:100110003200340037003A003D0040004300460002
:100120004A004E00520055005A005E00630068000D
:100130006D00730078007E0084008B0091009900B0
:10014000A000A900B100B900C300CC00D600E100B6
:10015000EC00F700040111011E012D013B014B01D0
:100160005B016C017D019101A501BA01CF01E6019E
:10017000FE01160231024C026A028802A802CA027B
:10018000ED021103380360038B03B803E70318047F
:100190004B048104B904F50434057505B90501065D
:1001A0004E069D06EF064807A30704086508D00819
:1001B0004009B6092B0AAB0A300BC30B510CEE0CED
:1001C0008F0D400EF60EAF0F681047111412F51286
:1001D000ED13E214F015F9161B185C19911AE51BC2
:1001E000251D831E0320AB21302332250F27F12844
:1001F000F82A1A2D492FA1311434A1364539173C5C
:100200001A3F34426045DF48704C40004101424390
:10021000030011241FBECFEFD2E0DEBFCDBF84B7F5
:1002200010929801823019F481E08093980114BEF5
:1002300011E0A0E0B1E0E4E6F8E202C005900D9222
:10024000A438B107D9F711E0A4E8B1E001C01D92CC
:10025000A839B107E1F770D00C943014D1CE85B134
:100260008F71806C85B9089585B18F71806485B96F
:10027000089576C008958EB3843089F440D282E028
:100280008093E9008091E80082FF09C085B18F71F9
:10029000806C85B902D185B18F71806885B9089568
:1002A0001F9382E060E842E30E947A0F90E0817041
:1002B0009070182F60918701262F2F702230A1F0A7
:1002C000822F253010F080E007C0661F6627661F6A
:1002D000606842E30E947A0F90E0212F30E0822391
:1002E0009323009719F004C0882311F490E401C00F
:1002F00090E885B18F71892B85B91F91089584B7D6
:10030000877F84BF88E10FB6F894809360001092D5
:1003100060000FBE90E080E80FB6F8948093610013
:10032000909361000FBE84B1806E84B985B18F71E6
:1003300085B954D00C941210E2DFD9D185B18F71F8
:10034000806485B97894489902C090E201C090E039
:1003500085B18F7D892B85B98EDF0E940214F3CF82
:10036000F9011082923049F0933089F0913069F5AB
:1003700022E130E084E790E02CC0908380918701F7
:100380008093140120E230E080E091E022C08130CF
:1003900061F0813028F0823069F08330B1F40FC011
:1003A00086E890E0FC0124910EC08AE890E0FC0110
:1003B000249109C088E990E0FC01249104C082EBFB
:1003C00090E0FC01249130E004C020E030E080E0C7
:1003D00090E0FA0191838083C901089580E090E064
:1003E0000E9416148093870190919801992359F0E7
:1003F000833811F063E801C062E86093870180E010
:1004000090E00E941E1485B18F7185B9809187019B
:10041000823829F0833899F082E88093870180E060
:1004200090EE93B92FEF31EE44E021503040404040
:10043000E1F700C000008F5F843099F70FC080E0C3
:1004400090EE93B92FEF31EE44E021503040404020
:10045000E1F700C000008F5F8A3099F78FEF99E6CF
:10046000A8E181509040A040E1F700C0000008954D
:1004700078941F920F920FB60F9211248F938AB522
:10048000882321F08AB581508ABD01C015BC8F91A7
:100490000F900FBE0F901F9018950F931F93DF932F
:1004A000CF930F92CDB7DEB71091F10084E68ABDED
:1004B00085E085BD143109F4D4C0153110F51A302A
:1004C00009F4B4C01B3068F4143038F4123008F06A
:1004D00056C0113009F0DDC033C0163009F0D9C064
:1004E0007DC0113109F4B8C0123120F4103109F087
:1004F000D0C0B0C0123109F4B7C0133109F0C9C07F
:10050000ADC0193109F4B5C01A3168F4163109F4D7
:10051000A8C0163108F4A2C0173109F4AAC01831D6
:1005200009F0B7C0A3C01D3109F4A6C01D3108F4FD
:100530009DC0103509F4A4C0113509F0AAC09EC0B1
:100540008091E8008B778093E800809187018F701D
:100550008093E9008091EC0081608093EC0010931F
:10056000F1001092F1008AE08093F10080E291E0C6
:100570006AE070E040E050E00E948312A2C0009167
:10058000F100123011F060E002C06091F100809142
:10059000E8008B778093E800809187018F708093CB
:1005A000E9008091EC0081608093EC001093F100F1
:1005B000802F6983BCD06981123039F481FF0CC06F
:1005C0001092F100802FBBD07CC080FF05C010923C
:1005D000F100802FA4D073C080EC71C089E891E055
:1005E00064E070E040E050E00E94D2118091E800A9
:1005F0008B778093E800809187018F708093E9006A
:100600008091EC0081608093EC0080918901909151
:100610008A01A0918B01B0918C01B7FF03C081E0EA
:100620008093880186E08093F10011C08091E800FA
:100630008B778093E800809187018F708093E90029
:100640008091EC0081608093EC001093F100109297
:10065000F10037C018D43AC0E0D338C0812FB6D2E9
:1006600035C0812F1BD232C0D8D130C0812FEED0FF
:100670002DC0812FA2D02AC044D128C0D3D526C0F6
:1006800017D724C08091E8008B778093E8000E9400
:10069000AD0F8091F2008034A9F38091E8008B7750
:1006A0008093E800809187018F708093E9008091AA
:1006B000EC0081608093EC001093F10089EC809352
:1006C000F1008091E8008E778093E80015BC0E94CD
:1006D000AD0F82E08093E9008091EC008E7F8093E3
:1006E000EC000F90CF91DF911F910F9108958BE94E
:1006F00087BD82E084BD80936E003AD086C40895A1
:10070000EBE2F1E09081891741F091E0E634F907DE
:1007100011F03396F7CFE0E0F0E0CF010895F0DF7D
:10072000009711F480E00895FC0182810895E8DFCC
:10073000009711F480E00895FC01818108951F93D2
:10074000DF93CF930F92CDB7DEB7182F6983D8DF31
:100750006981009741F0FC0162831E3921F481E038
:1007600090E00E941E140F90CF91DF911F91089589
:10077000CF93DF938EE9C4DFEC0181E090E00E942B
:1007800016148A83DF91CF91089506C0EFE9FFE048
:100790003197F1F700C00000882321F09AB581500D
:1007A0009923A1F7089590914901992329F08EBDCD
:1007B0000DB407FEFDCF089568C4EF92FF921F931A
:1007C000DF93CF9300D000D0CDB7DEB7182FCE0186
:1007D000019664E070E040E050E00E94271288EE4D
:1007E000E82EF12CF70180818B778083809187013F
:1007F0008F708093E900ECEEF0E08081816080836F
:100800008981D1DF8A81CFDF8B81CDDF8C81CBDF06
:10081000E1EFF0E0108310821082F70180818E7783
:1008200080830F900F900F900F90CF91DF911F91C9
:10083000FF90EF90089590914901992331F08EBD7A
:100840000DB407FEFDCF8EB508951FC4EF92FF9241
:100850001F93DF93CF93CDB7DEB729970FB6F894E8
:10086000DEBF0FBECDBF182FCE01059665E070E04C
:1008700040E050E00E94271298EEE92EF12CF7019B
:1008800080818B778083809187018F708093E900CE
:10089000ECEEF0E08081816080838E81CCDF898303
:1008A0008F81C9DF8A838885C6DF8B838985C3DF13
:1008B0008C83E1EFF0E010831082AD81CE018A0FCE
:1008C000911DDC018C9180831082F70180818E77ED
:1008D000808329960FB6F894DEBF0FBECDBFCF91AF
:1008E000DF911F91FF90EF90089580914901882337
:1008F00031F01EBC0DB407FEFDCF8EB5089580E02B
:10090000C4C3CF92DF92FF920F931F93DF93CF93D5
:10091000CDB7DEB7C250D1400FB6F894DEBF0FBEE0
:10092000CDBFCE01019663E070E040E050E00E9450
:1009300027128E010C5F1F4F6981C80170E040E0F3
:1009400050E00E9427128091E8008B778093E800A6
:10095000809187018F708093E9008091EC00816025
:100960008093EC008DE18093F1001092F100FF2460
:100970000BC08981F81628F4F801EF0DF11D808174
:1009800001C080E010DFF3948B81F81690F300E053
:1009900024E0C22ED12CCC0EDD1E19C08981F816A0
:1009A00038F4F601EF0DF11DF394808144DF01C0AE
:1009B0009CDF8093F1008091E80085FD07C0809165
:1009C000E8008E778093E8000E94AD0F0F5F8A8168
:1009D000081720F31092F1009091E8008091E80050
:1009E0008E778093E80095FD09C00E94AD0F80913D
:1009F000E8008E778093E8000E94AD0FCE5FDE4F57
:100A00000FB6F894DEBF0FBECDBFCF91DF911F911F
:100A10000F91FF90DF90CF900895DF93CF9300D098
:100A200000D000D0CDB7DEB7CE01019666E070E011
:100A300040E050E00E9427128091E8008B7780937D
:100A4000E800809187018F708093E9008091EC002D
:100A500081608093EC008B81A6DE8C81A4DE8D8189
:100A6000A2DE8E81A0DE8A81882321F489818DDE39
:100A700080E001C033D392E19093F1008093F100C4
:100A80008091E8008E778093E80026960FB6F89460
:100A9000DEBF0FBECDBFCF91DF910895DF92EF9201
:100AA000FF920F931F93DF93CF9300D00F92CDB798
:100AB000DEB7182FCE01019663E070E040E050E011
:100AC0000E94271289819A8199838A838091E80004
:100AD0008B778093E800809187018F708093E90085
:100AE0008091EC0081608093EC001093F1001092F3
:100AF000F100EE24FF2438E0D32E01E042C08091C3
:100B00008801882319F008D3109288018B814BDE6D
:100B100080918A0148DE8091890145DEE6DE80937E
:100B2000F1008091E80085FD07C08091E8008E7794
:100B30008093E8000E94AD0F143119F48B818D254C
:100B40008B83E0FC02C01631C9F480918901909139
:100B50008A01A0918B01B0918C010196A11DB11D5C
:100B60008093890190938A01A0938B01B0938C01AB
:100B7000163121F0009711F4009388010894E11CCC
:100B8000F11C89819A81E816F90608F4B8CF109211
:100B9000F1009091E8008091E8008E778093E80062
:100BA00095FD09C00E94AD0F8091E8008E7780937B
:100BB000E8000E94AD0F0F900F900F90CF91DF9142
:100BC0001F910F91FF90EF90DF9008954F925F92E9
:100BD0006F927F928F929F92AF92BF92CF92DF924D
:100BE000EF92FF920F931F93DF93CF93CDB7DEB7B2
:100BF000C950D1400FB6F894DEBF0FBECDBF182F3D
:100C0000CE01019669E070E040E050E00E942712BA
:100C10006A81798181E06130780798F08091E800FD
:100C20008B778093E800809187018F708093E90033
:100C30008091EC0081608093EC001093F10080ECD7
:100C4000CDC07A836983CE010A9640E050E00E94CD
:100C5000271289819A810A968F739070009739F4D0
:100C60008091E8008B778093E8000E94AD0F80911F
:100C7000E8008B778093E800809187018F708093E4
:100C8000E9008091EC0081608093EC00133111F455
:100C9000B88401C0B9845090890160908A01CC2445
:100CA000DD245AE0852E912C8C0E9D1EEE24FF240F
:100CB00048E0A42E7724739462C0F40140800B8135
:100CC00080918801882319F027D2109288018D81A4
:100CD0006ADD80918A0167DD8091890164DD842D60
:100CE00062DD133119F48D818A258D83E114F104BD
:100CF00081F44B1471F0C0FE05C0133119F48F81DB
:100D0000886002C08F81877F8F83E0908901F09097
:100D10008A0100FD11C0E114F10421F403FD02C0B9
:100D2000097F0260802FB7014B2D2C810F81FDD1EF
:100D3000882361F5EE24FF24C0FC02C01531C9F4FC
:100D40008091890190918A01A0918B01B0918C01D1
:100D50000196A11DB11D8093890190938A01A093F2
:100D60008B01B0938C01133121F4009711F4709230
:100D700088010894811C911C0894C11CD11C898194
:100D80009A81C816D90608F498CF80E09B8197FF16
:100D900023C08E8108DD862D06DD852D04DD80E0F3
:100DA00002DD8B8185FF06C0E114F10419F48F7C0C
:100DB00080618B838B81B7014B2D2C810F81B5D145
:100DC000133151F42091890130918A0121153105A7
:100DD00019F491E0909388011093F1008093F10051
:100DE0008091E8008E778093E800C75FDE4F0FB6F2
:100DF000F894DEBF0FBECDBFCF91DF911F910F9151
:100E0000FF90EF90DF90CF90BF90AF909F908F902A
:100E10007F906F905F904F9008950F931F93DF9393
:100E2000CF9300D0CDB7DEB7CE01019662E070E07F
:100E300040E050E00E94271208EE10E0F8018081A7
:100E40008B778083809187018F708093E900ECEE2F
:100E5000F0E0808181608083898197DC80E0ADD182
:100E6000E8D08A8192DCE1EFF0E081E180831082BA
:100E7000F80180818E7780830F900F90CF91DF9162
:100E80001F910F9108958F929F92AF92BF92CF9230
:100E9000DF92EF92FF920F931F93DF93CF93CDB723
:100EA000DEB72F970FB6F894DEBF0FBECDBFCE01D1
:100EB00005966BE070E040E050E00E9427128091C0
:100EC000E8008B778093E800809187018F70809392
:100ED000E9008091EC0081608093EC001092890120
:100EE00010928A0110928B0110928C018F814DDC3F
:100EF00070D181E062D18E8148DC7CE0872E912C1C
:100F00008C0E9D1E5E010894A11CB11C60E1C62ED2
:100F1000D12CCC0EDD1E1EC0898537DCF8018191F5
:100F20008F0189DCF70181937F010C151D05A1F765
:100F30008B858823D1F0FE01E80FF11D90818A8511
:100F4000981799F080E039D18E811FDC81E035D18E
:100F50008E811BDC8885882351F09AB5992339F05E
:100F60008150888784017501D7CF80E001C080EC73
:100F700090E19093F1008093F1008091E8008E77EA
:100F80008093E8002F960FB6F894DEBF0FBECDBF5A
:100F9000CF91DF911F910F91FF90EF90DF90CF9055
:100FA000BF90AF909F908F9008951F920F920FB6B1
:100FB0000F9211248F93199908C08091840187FFA3
:100FC00002C02A9A1BC02A9819C080918401880FF8
:100FD0008093840180918501815080938501809167
:100FE0008501882321F41092810082E086BB1B9B3F
:100FF00005C080918401816080938401199A8F914A
:101000000F900FBE0F901F9018953E9A10926F0090
:10101000109285001092840081E090E09093890006
:101020008093880080E48093800089E08093810031
:10103000089580914901882349F084B1897F84B95A
:1010400085B1867F85B91CBC1DBC089584B1897F9C
:1010500084B985B1867F85B9D8CF92E090936F002F
:101060001092850010928400E82FF0E0EE0FFF1F31
:10107000EE53FF4F8591949190938900809388005F
:10108000109280001092810008958093840188E07E
:10109000809385018091840187FF02C02A9A01C054
:1010A0002A9810928500109284008AE08093810033
:1010B00080918501882319F08AB58823C9F7109299
:1010C000810080918401089590914901992329F02C
:1010D0008EBD0DB407FEFDCF0895D7CF80EFF4DFAE
:1010E00080E0F2DF80E0F0DF80914901882331F079
:1010F0001EBC0DB407FEFDCF8EB502C080E0C5DF7B
:1011000080FF03C08AB5882349F78AB5882311F484
:1011100081E8089580E008958DE4D6DF80E0D4DF93
:1011200080918B01D1DF80E0CFCFEF92FF920F93C0
:101130001F93162FF72EE42E90E08E7788309105BE
:1011400091F1893091053CF48230910569F0843049
:10115000910559F50CC08032910549F08034910514
:1011600011F18031910509F5822F0FDB1EC0802F10
:10117000ABDF8F2DA9DF812FA7DF80914901882365
:1011800031F01EBC0DB407FEFDCF8EB502C080E06D
:101190007CDF8E1519F48AB5882349F78AB5882330
:1011A00021F480E803C09ADF01C080E094E69ABD94
:1011B0001F910F91FF90EF900895882339F0249AA2
:1011C0008EE9ADDA882319F42C9A089524982C9886
:1011D000089588E9A4DA8730E0F491E0909349011A
:1011E000E82FF0E0E65FFD4F84918061209A289A15
:1011F00094B1966094B923982B9A86FF03C09DB54D
:10120000916002C09DB59E7F9DBD209880648CBD7D
:1012100008951092490194B1966094B995B199607E
:1012200095B91BCFDF93CF930F92CDB7DEB7CE0129
:10123000019661E070E040E050E00E94271280914A
:10124000E8008B778093E800809187018F7080930E
:10125000E9008091EC0081608093EC0089818093AB
:10126000860191E59093F100813011F480EC01C08A
:1012700080E08093F1008091E8008E778093E80011
:101280000F90CF91DF9108959B01692F782F832FC5
:10129000922F0895AF92BF92CF92DF92EF92FF927A
:1012A0000F931F93DF93CF93CDB7DEB7C850D140D4
:1012B0000FB6F894DEBF0FBECDBFCE01019668E039
:1012C00070E040E050E00E9427126B817C818D81AC
:1012D0009E81DADF6B837C838D839E837F8168852B
:1012E0006F837887CE01099640E050E00E94271274
:1012F0008F81988509968F739070009731F4809153
:10130000E8008B778093E80028D68091E8008B77FF
:101310008093E800809187018F708093E90080912D
:10132000EC0081608093EC0080918601882391F528
:1013300029812150263020F066E283E29EE213C02C
:1013400030E0F901E65AFE4F9081F901E05AFE4F74
:101350008081F901EA59FE4F608124593E4FF9011D
:101360002081222379F0EB80FC800D811E81AF80EB
:10137000B884492F2A8199E0C92ED12CCC0EDD1ECC
:10138000E7D210C04B815C816D817E81892F2985D8
:1013900046D308C04F8158858B819C81BE01675F11
:1013A0007F4FE7D4882311F080E001C083E090E50F
:1013B0009093F10094E09093F1008093F10080917C
:1013C000E8008E778093E800C85FDE4F0FB6F89490
:1013D000DEBF0FBECDBFCF91DF911F910F91FF9068
:1013E000EF90DF90CF90BF90AF900895DF93CF93B1
:1013F000CDB7DEB7C750D1400FB6F894DEBF0FBEF1
:10140000CDBFCE01019667E070E040E050E00E9461
:1014100027126A817B818C819D8136DF6A837B8381
:101420008C839D833E812F812E833F834091E800F2
:101430004B774093E800409187014F704093E9005B
:101440004091EC0041604093EC00E0918601AE01D8
:10145000485F5F4FEE2311F404D304C0CB01BA01FF
:10146000A901C5D4882311F483E001C080E090E590
:101470009093F10095E09093F1008093F100882320
:1014800041F46E817F81CE01089640E050E00E94D9
:1014900083128091E8008E778093E800C95FDE4F69
:1014A0000FB6F894DEBF0FBECDBFCF91DF91089588
:1014B000DF93CF93CDB7DEB729970FB6F894DEBF91
:1014C0000FBECDBF8091F100843009F496C0853005
:1014D00048F4823099F1833008F04FC0813009F030
:1014E0002FC10AC0863009F48CC0863008F487C04A
:1014F000873009F025C1CEC08091E8008B778093BA
:10150000E800809187018F708093E9008091EC0062
:1015100081608093EC0080918601882311F497D339
:1015200005C0823011F080E001C0A5D490E5909311
:10153000F10091E09093F1008927FBC08091E800D1
:101540008B778093E800809187018F708093E9000A
:101550008091EC0081608093EC008091860188236B
:1015600011F46AD301C07CD480E58093F10082E05D
:101570008093F1001092F100DEC0CE01059665E087
:1015800070E040E050E063D76E817F818885998567
:101590007BDEAB01BC014E835F83688779878091D6
:1015A000E8008B778093E800809187018F708093AB
:1015B000E9008091EC0081608093EC0080918601CD
:1015C000ED81882349F4E150E83020F4F0E0EE5A50
:1015D000FE4F80818BD207C0E13011F084E101C061
:1015E00080E1BA01ADD3882311F080E001C083E02F
:1015F00090E59093F10093E09AC04CDEA1C0F6DE36
:101600009FC0CE01059661E070E040E050E01FD73A
:101610008091E8008B778093E800809187018F703C
:101620008093E9008091EC0081608093EC008091D0
:101630008601882311F081E014C08D8181508230B1
:1016400010F088E705C0E82FF0E0EE58FE4F8081EB
:10165000BE016F5F7F4FB4D2882311F483E001C0D5
:1016600080E090E59093F10096E09093F1008093F4
:10167000F100882309F05FC089819A81AB81BC8128
:101680009D01442755272093F1008093F10090930A
:10169000F10051C08091F100833039F1843028F499
:1016A000813049F0823029F417C0843019F1853037
:1016B00031F181E029C08091F1009091F1002091F9
:1016C000F1003091F10030934A0120934B01909347
:1016D0004C0180934D0117C08091F1009091F10071
:1016E00090934E0180934F010EC08091F100809342
:1016F000500109C08091F1008093510104C0809194
:10170000F1008091F10080E09091E8009B77909348
:10171000E800909187019F709093E9009091EC0010
:1017200091609093EC0090E59093F10097E0909396
:10173000F1008093F1008091E8008E778093E800BB
:1017400029960FB6F894DEBF0FBECDBFCF91DF91C3
:1017500008954D99FECF4D9BFECF4D99FECF5B9ADC
:10176000539A8091C9008F7E8093C9008091C900EF
:1017700088608093C90081E080938D0108958091F5
:101780008D01882309F4E5DF80E04D99FECF4D9B64
:10179000FECF4D99FECF8F5F8C30B9F70895DF9360
:1017A000CF930F92CDB7DEB790918D01992319F4A5
:1017B0008983CFDF89819091C80095FFFCCF9091FC
:1017C000C80090649093C8008093CE000F90CF9192
:1017D000DF9108958091C80086FFFCCF8091C800FA
:1017E00080648093C8008091C900877F8093C9007E
:1017F0008091C90080618093C90053985B981092D2
:101800008D01089580918D01882309F0E3DF809197
:10181000C80087FD03C08AB58823C9F78091CE0030
:10182000089580918D01882309F0D4DF8091C8004C
:10183000806C8093C8001092C9001092CA008AB1CF
:10184000877D8AB98BB1837D8BB924982C980895B4
:1018500080918D01882309F0BDDF80EC8093C80062
:101860001092C9001092CA008AB1877D8AB98BB1E3
:10187000837D8BB9089510928D01249A2C9885E070
:101880008A95F1F700008AB188628AB952988FE18F
:1018900090E09093CD008093CC0088E08093C900C5
:1018A0008FE68093CA006BDF6ACF10928D018AB1F8
:1018B00088628AB952985B9A85E08A95F1F70000B0
:1018C0008FE190E09093CD008093CC0088E08093EE
:1018D000C9008FE68093CA0052DF51CF1F93DF9378
:1018E000CF9300D0CDB7DEB7182F862F79839A8398
:1018F00056DF7981872F53DF812F51DF9A81892F1E
:101900004EDF0F900F90CF91DF911F910895682FB8
:1019100070E080E090E020914A0130914B014091CD
:101920004C0150914D01622B732B842B952BD6CFFC
:101930008BE635DF8FE0EBDF80E231DF63DF9AB5E6
:10194000992311F480E0089587FDF6CF81E0089592
:101950007F928F929F92AF92BF92CF92DF92EF923F
:10196000FF920F931F93CF93DF93882E962E742EA2
:10197000E601D22E20FF10C0DBDF882309F440C02F
:101980008CE40DDF8AE0C3DF892D09DF8CE407DFFB
:101990008BE0BDDF81E003DFA114B104E9F0C8DF13
:1019A000882371F18CE4FBDE8AE0B1DF882DF7DE5D
:1019B0008BE6F5DEC801B70191DF80EAF0DE8A2D03
:1019C0008150EDDE84E6EBDE8991E9DE0894A10822
:1019D000B108A114B104C1F7D1FE10C0A9DF88235A
:1019E00079F08CE4DCDE8AE092DF872DD8DE8CE4AF
:1019F000D6DEC801B70172DF80E0D1DE81E001C030
:101A000080E0DF91CF911F910F91FF90EF90DF90D9
:101A1000CF90BF90AF909F908F907F900895CF927E
:101A2000DF92EF92FF920F931F93182F6A017B01B1
:101A3000022F7EDF882371F08CE4B1DE8AE067DF5D
:101A4000812FADDE8CE4ABDEC701B60147DF802F0E
:101A5000A6DE81E01F910F91FF90EF90DF90CF9075
:101A60000895CF92DF92EF92FF920F931F93CF933F
:101A7000DF937B018C01EA0169015ADF882309F1B8
:101A80008CE48DDE8AE043DF83E489DE8BE687DE4B
:101A9000C801B70123DF80EA82DE8C2D81507FDE12
:101AA00084E27DDE02C0AEDE8993C114D10431F040
:101AB0008AB50894C108D1088823A9F78AB581118D
:101AC00081E0DF91CF911F910F91FF90EF90DF9018
:101AD000CF90089580E863DE95DE9AB5992311F4DE
:101AE00080E0089581FFF6CF81E00895CF92DF92E4
:101AF000EF92FF921F93182F6A017B0119DF882351
:101B000009F457C0103431F48CE449DE8AE0FFDE7A
:101B100080E439C0103309F03DC08CE440DE8AE037
:101B2000F6DE86E33CDE8CE43ADE8BE0F0DE81E03C
:101B300036DEFEDE882309F43CC08CE430DE8AE029
:101B4000E6DE83E32CDE8BE62ADEC701B601C6DEC5
:101B500080EA25DE80914E01815021DE84E61FDE81
:101B600010E003C080E01BDE1F5F212F30E080917A
:101B70004E0190914F0128173907A0F38CE40FDE36
:101B80008AE0C5DE80E30BDE8CE409DE8BE0BFDE9D
:101B900081E00CC08CE403DE8AE0B9DE812FFFDD3A
:101BA0008CE4FDDDC701B60199DE80E0F8DD92DF4F
:101BB00001C080E01F91FF90EF90DF90CF900895DB
:101BC0000F931F93CF93DF93182FEB011882198285
:101BD0001A821B82ADDE882349F18CE4E0DD8AE0C5
:101BE00096DE812FDCDD8CE4DADD8BE090DE81E0B7
:101BF000D6DD70DF8823D1F09BDE8823B9F08BE639
:101C0000CEDD84E084DE80EACADD82E0C8DD84E2E5
:101C1000C6DD8E010D5F1F4FF5DD8993C017D1071B
:101C2000D9F78AB5882319F081E001C080E0DF91FF
:101C3000CF911F910F9108954DDF81ECB0DD80E0D1
:101C4000AEDD81E8ACDDDEDD8823B9F701CECF92D1
:101C5000DF92EF92FF920F931F93DF93CF93CDB755
:101C6000DEB728970FB6F894DEBF0FBECDBF1DDEDE
:101C700081EC95DD89E593DD82EC91DD82E08FDDFD
:101C800080EE8DDD8E01085F1F4F6E017E0108948E
:101C9000E11CF11CD701E4E7F1E088E001900D922E
:101CA0008150E1F7F80180817ADD015010400C1578
:101CB0001D0581F70FDF28960FB6F894DEBF0FBE23
:101CC000CDBFCF91DF911F910F91FF90EF90DF90EB
:101CD000CF900895282F2F70206990E08073907026
:101CE000880F991F822B5BCD1F93DF93CF930F92A9
:101CF000CDB7DEB7182F88E6998351DD812F4FDDF0
:101D000089E64DDD9981892F4ADD0F90CF91DF91D2
:101D10001F91089580915101282F2F70206190E02C
:101D200080739070880F991F822B39DD6BDD9AB517
:101D3000992311F480E0089587FDECCF81E00895A8
:101D40001F93CF93DF93182FEB01E4DF882369F013
:101D500080915001BFDF812F22DDCE018160C4DF81
:101D600080E61DDD80E01BDDD5DFDF91CF911F9187
:101D70000895EF92FF920F931F93CF93DF93EC019F
:101D80008B017A01C7DF882351F1E0FE08C0F8011A
:101D9000EE0DFF1D8FEF80830894E11CF11C8091F4
:101DA000500198DF8DE1FBDCCE019EDF13C0B2DF76
:101DB0008823A9F084E6F3DCF8018081F0DC84E676
:101DC000EEDCF80181810E5F1F4FE9DC8EEF9FEFA3
:101DD000E80EF91EE114F10451F781E001C080E042
:101DE000DF91CF911F910F91FF90EF900895EF92A7
:101DF000FF920F931F93CF93DF93EC018B017A0136
:101E000089DF8823D1F08091500164DF80E0C7DC56
:101E1000CE016ADF06C084E2C2DCF4DCF801819303
:101E20008F01E114F10431F08AB50894E108F1085A
:101E3000882389F78AB5811181E0DF91CF911F91C5
:101E40000F91FF90EF90089580E8A9DCDBDC9AB554
:101E5000992311F480E0089581FFF6CF81E0089581
:101E6000F3DF80EC9CDC80E09ADC81E898DCCADC63
:101E70008823B9F7D6CCCF92DF92EF92FF920F93DF
:101E80001F93DF93CF93CDB7DEB728970FB6F894A3
:101E9000DEBF0FBECDBFEFDC82EC81DC82E07FDCF9
:101EA00080EE7DDC8E01085F1F4F6E017E0108947D
:101EB000E11CF11CD701ECE7F1E088E001900D9204
:101EC0008150E1F7F80180816ADC015010400C1567
:101ED0001D0581F7B9DF28960FB6F894DEBF0FBE57
:101EE000CDBFCF91DF911F910F91FF90EF90DF90C9
:101EF000CF9008958F708093E9008091EB0081600E
:101F00008093EB001092ED006093EC004093ED00A5
:101F10008091EE00881F8827881F08958091900186
:101F200088238CF403C08EB38823B1F08091E8003D
:101F300082FFF9CF8091E8008B778093E8000895C5
:101F40008EB3882349F08091E80080FFF9CF80911B
:101F5000E8008E778093E80008952091E4003091A6
:101F6000E50084E69091EC0090FF23C09091E8009A
:101F700090FD1DC09EB3992311F482E00895953021
:101F800011F483E008959091EB0095FF02C081E089
:101F900008954091E4005091E5004217530711F372
:101FA000882311F484E0089581509A01DBCF80E00A
:101FB00008959091E80092FFDDCFF9CF3CD03ED05C
:101FC0008091D8008F778093D8008091D800806866
:101FD0008093D8008091D8008F7D8093D80084E0D2
:101FE00089BD86E089BD09B400FEFDCF1EBA1092FE
:101FF0008E0180E060E042E17DDF8091E1008E7F34
:102000008093E1008091E20081608093E200809102
:10201000E20088608093E2008091E0008E7F8093F0
:10202000E0000895E3E6F0E080818E7F808381E028
:1020300080938F01C3CF1092E20008951092E100C7
:1020400008951F920F920FB60F9211242F933F9372
:102050004F935F936F937F938F939F93AF93BF93B0
:10206000EF93FF938091E10080FF17C08091E20021
:1020700080FF13C08091E2008E7F8093E200809108
:10208000E20080618093E2008091D80080628093BA
:10209000D80019BC1EBA0E9434018091E10084FF6F
:1020A0002DC08091E20084FF29C084E089BD86E0D4
:1020B00089BD09B400FEFDCF8091D8008F7D80934B
:1020C000D8008091E1008F7E8093E1008091E20052
:1020D0008F7E8093E2008091E20081608093E20035
:1020E00080918E01882331F48091E30087FD02C046
:1020F00081E001C084E08EBB0E942F018091E1004D
:1021000083FF21C08091E20083FF1DC08091E10028
:10211000877F8093E10082E08EBB10928E018091D8
:10212000E1008E7F8093E1008091E2008E7F8093BA
:10213000E2008091E20080618093E20080E060E054
:1021400042E1D8DE5ED3FF91EF91BF91AF919F91B5
:102150008F917F916F915F914F913F912F910F9050
:102160000FBE0F901F901895209196013091970106
:102170002617370718F4FC0140E03AC061157105D5
:1021800011F09B01F8CF2091E8002E772093E80012
:1021900020E030E0F0CF8EB38823D9F18530D9F13B
:1021A0008091E80083FF02C081E008958091E800FB
:1021B00082FD29C08091E80080FF1AC08091F20062
:1021C00090E006C041914093F100215030400196CB
:1021D0002115310519F080319105A0F340E08031DF
:1021E000910509F441E09091E8009E779093E80012
:1021F0002115310581F6442371F605C08EB388237D
:1022000041F0853041F08091E80082FFF7CF80E017
:10221000089582E0089583E0089520919601309119
:1022200097012617370720F4E82FF92F40E03DC02B
:102230006115710511F09B01F7CF2091E8002E7711
:102240002093E80020E030E0EFCF8EB3882309F43C
:102250003DC0853009F43CC08091E80083FF02C096
:1022600081E008958091E80082FD2AC08091E80015
:1022700080FF1BC08091F20090E007C04491409322
:10228000F10031962150304001962115310519F0A9
:102290008031910598F340E08031910509F441E0E7
:1022A0008091E8008E778093E8002115310569F66A
:1022B000442359F605C08EB3882341F0853041F0A0
:1022C0008091E80082FFF7CF80E0089582E00895D2
:1022D00083E00895EF92FF920F931F93CF93DF93C4
:1022E000C0919601D0919701C617D70720F4E82E28
:1022F000F92E80E03DC06115710511F0EB01F7CFBB
:102300002091E8002E772093E800C0E0D0E0EFCFE6
:102310009EB39923E9F19530E9F19091E80093FF9C
:1023200002C081E038C09091E80092FD2BC09091EE
:10233000E80090FF1DC00091F20010E00AC0C70144
:1023400075D28093F1000894E11CF11C21970F5F76
:102350001F4F209719F00031110588F380E00031FC
:10236000110509F481E09091E8009E779093E800D0
:10237000209771F6882361F605C08EB3882341F05B
:10238000853041F08091E80082FFF7CF80E003C004
:1023900082E001C083E0DF91CF911F910F91FF9008
:1023A000EF900895BF92CF92DF92EF92FF920F933A
:1023B0001F93CF93DF93EC018B016A01CEDDB82E22
:1023C0008823D1F578010894E108F108EC0EFD1E90
:1023D000C114D10439F0F60180819181081B190BD9
:1023E000E81AF90AC0E0D0E024C08091E80085FD39
:1023F00016C08091E8008B778093E80003D2C11467
:10240000D10449F0F601808191818C0F9D1F918349
:10241000808385E012C0A1DD882359F00EC0809131
:10242000F100F70180830894E108F10801501040A1
:10243000219601151105C9F68B2DDF91CF911F91C2
:102440000F91FF90EF90DF90CF90BF9008958F9203
:102450009F92BF92CF92DF92EF92FF920F931F93C2
:10246000DF93CF930F92CDB7DEB7182F4B017A01D0
:10247000998373DDB82E99818823B9F5012F192F1F
:10248000E114F10439F0F70180819181881A990AE9
:10249000080F191FCC24DD2425C08091E80085FD9C
:1024A00016C08091E8008B778093E800ABD1E114EF
:1024B000F10449F0F701808191818C0D9D1D91837C
:1024C000808385E013C049DD882361F00FC08091CF
:1024D000F100F80181938F01089481089108089414
:1024E000C11CD11C81149104C1F68B2D0F90CF918A
:1024F000DF911F910F91FF90EF90DF90CF90BF90F1
:102500009F908F9008958F929F92BF92CF92DF926B
:10251000EF92FF920F931F93DF93CF930F92CDB75C
:10252000DEB7182F4B017A01998317DDB82E9981F8
:102530008823B9F5012F192FE114F10439F0F701BF
:1025400080819181881A990A080F191FCC24DD24F3
:1025500025C08091E80085FD16C08091E8008E7747
:102560008093E8004FD1E114F10449F0F701808134
:1025700091818C0D9D1D9183808385E013C0EDDCDE
:10258000882361F00FC0F80181918F018093F100E1
:102590000894810891080894C11CD11C81149104ED
:1025A000C1F68B2D0F90CF91DF911F910F91FF906E
:1025B000EF90DF90CF90BF909F908F9008950F93F2
:1025C0001F93DF93CF9300D00F92CDB7DEB7E0E932
:1025D000F1E08091F100819381E0E839F807C9F7D3
:1025E00010D18091E80083FFF6C080919001909116
:1025F0009101953009F46FC0963040F4913091F11B
:10260000913070F0933009F0E6C02CC0983009F496
:10261000B4C0993009F4C3C0963009F0DCC07EC064
:10262000803811F490E014C0823809F0D4C0809151
:1026300094018F708093E9008091EB0090E025E099
:10264000969587952A95E1F7982F91701092E90059
:102650008091E800877F8093E8009093F1001092CA
:10266000F10096C0882319F0823009F0B4C08F7150
:10267000823009F0B0C080919201882331F58091B9
:1026800094018F7009F4A7C08093E9002091EB00BA
:1026900020FF1BC0933021F48091EB00806213C0B7
:1026A0009091EB0090619093EB0021E030E002C04C
:1026B000220F331F8A95E2F72093EA001092EA0076
:1026C0008091EB0088608093EB001092E90080918C
:1026D000E800877F60C0882309F07DC010919201D7
:1026E0001F770FB7F8948091E800877F8093E80008
:1026F00015DC8091E80080FFFCCF8091E3008078BA
:10270000812B8093E30080688093E300112311F410
:1027100082E001C083E08EBB0FBF5DC08058823075
:1027200008F059C0809192019091930160919401B9
:10273000AE014E5F5F4F9E012F5F3F4F0E943901F8
:10274000BC01009709F447C08091E800877F80931F
:10275000E8002981222321F48A819B815EDD07C064
:102760008A819B81213011F4B5DD01C0FDDC8091AF
:10277000E8008B778093E8002EC0803861F5809167
:10278000E800877F8093E80080918E018093F100BC
:102790008091E8008E778093E800C0DB1CC088231E
:1027A000D1F4909192019230B0F48091E800877F4B
:1027B0008093E80090938E01B1DB80918E01882395
:1027C00031F48091E30087FD02C081E001C084E024
:1027D0008EBB0E9450018091E80083FF0AC0809167
:1027E000EB0080628093EB008091E800877F80930C
:1027F000E8000F900F900F90CF91DF911F910F91F4
:10280000089508951F938EB3882371F01091E90005
:102810008091EC001092E9008091E80083FF01C0F4
:10282000CEDE1F701093E9001F910895F999FECF35
:1028300092BD81BDF89A992780B50895262FF99900
:10284000FECF92BD81BDF89A019700B4021639F00F
:102850001FBA20BD0FB6F894FA9AF99A0FBE0895E0
:04286000F894FFCF1A
:1028640009022000010100C0320904000002FF0037
:1028740000000705000240000A0705020240000AA2
:102884004156524953505F4D4B3200800100810143
:102894000090010091010192011194012198030615
:1028A4009E0301A10100A4030001C0010001200056
:1028B400333240206830222A3218242C354C081A2E
:1028C400232333232323262636262626010101002B
:1028D400000138391289AB45CDD888FF1289AB4540
:0428E400CDD888FFC4
:00000001FF
